{"abi":[{"type":"constructor","inputs":[{"name":"name_","type":"string","internalType":"string"},{"name":"symbol_","type":"string","internalType":"string"},{"name":"initialSupply_","type":"uint256","internalType":"uint256"},{"name":"owner_","type":"address","internalType":"address"}],"stateMutability":"nonpayable"},{"type":"function","name":"MAX_SUPPLY","inputs":[],"outputs":[{"name":"","type":"uint256","internalType":"uint256"}],"stateMutability":"view"},{"type":"function","name":"allowance","inputs":[{"name":"ownerAddr","type":"address","internalType":"address"},{"name":"spender","type":"address","internalType":"address"}],"outputs":[{"name":"","type":"uint256","internalType":"uint256"}],"stateMutability":"view"},{"type":"function","name":"approve","inputs":[{"name":"spender","type":"address","internalType":"address"},{"name":"amount","type":"uint256","internalType":"uint256"}],"outputs":[{"name":"","type":"bool","internalType":"bool"}],"stateMutability":"nonpayable"},{"type":"function","name":"balanceOf","inputs":[{"name":"account","type":"address","internalType":"address"}],"outputs":[{"name":"","type":"uint256","internalType":"uint256"}],"stateMutability":"view"},{"type":"function","name":"burn","inputs":[{"name":"amount","type":"uint256","internalType":"uint256"}],"outputs":[],"stateMutability":"nonpayable"},{"type":"function","name":"burnFrom","inputs":[{"name":"account","type":"address","internalType":"address"},{"name":"amount","type":"uint256","internalType":"uint256"}],"outputs":[],"stateMutability":"nonpayable"},{"type":"function","name":"decimals","inputs":[],"outputs":[{"name":"","type":"uint8","internalType":"uint8"}],"stateMutability":"pure"},{"type":"function","name":"hasOwner","inputs":[],"outputs":[{"name":"","type":"bool","internalType":"bool"}],"stateMutability":"view"},{"type":"function","name":"mint","inputs":[{"name":"to","type":"address","internalType":"address"},{"name":"amount","type":"uint256","internalType":"uint256"}],"outputs":[],"stateMutability":"nonpayable"},{"type":"function","name":"name","inputs":[],"outputs":[{"name":"","type":"string","internalType":"string"}],"stateMutability":"view"},{"type":"function","name":"owner","inputs":[],"outputs":[{"name":"","type":"address","internalType":"address"}],"stateMutability":"view"},{"type":"function","name":"renounceOwnership","inputs":[],"outputs":[],"stateMutability":"nonpayable"},{"type":"function","name":"symbol","inputs":[],"outputs":[{"name":"","type":"string","internalType":"string"}],"stateMutability":"view"},{"type":"function","name":"totalSupply","inputs":[],"outputs":[{"name":"","type":"uint256","internalType":"uint256"}],"stateMutability":"view"},{"type":"function","name":"transfer","inputs":[{"name":"to","type":"address","internalType":"address"},{"name":"amount","type":"uint256","internalType":"uint256"}],"outputs":[{"name":"","type":"bool","internalType":"bool"}],"stateMutability":"nonpayable"},{"type":"function","name":"transferFrom","inputs":[{"name":"from","type":"address","internalType":"address"},{"name":"to","type":"address","internalType":"address"},{"name":"amount","type":"uint256","internalType":"uint256"}],"outputs":[{"name":"","type":"bool","internalType":"bool"}],"stateMutability":"nonpayable"},{"type":"function","name":"transferOwnership","inputs":[{"name":"newOwner","type":"address","internalType":"address"}],"outputs":[],"stateMutability":"nonpayable"},{"type":"event","name":"Approval","inputs":[{"name":"owner","type":"address","indexed":true,"internalType":"address"},{"name":"spender","type":"address","indexed":true,"internalType":"address"},{"name":"value","type":"uint256","indexed":false,"internalType":"uint256"}],"anonymous":false},{"type":"event","name":"OwnershipTransferred","inputs":[{"name":"previousOwner","type":"address","indexed":true,"internalType":"address"},{"name":"newOwner","type":"address","indexed":true,"internalType":"address"}],"anonymous":false},{"type":"event","name":"Transfer","inputs":[{"name":"from","type":"address","indexed":true,"internalType":"address"},{"name":"to","type":"address","indexed":true,"internalType":"address"},{"name":"value","type":"uint256","indexed":false,"internalType":"uint256"}],"anonymous":false},{"type":"error","name":"InsufficientAllowance","inputs":[{"name":"available","type":"uint256","internalType":"uint256"},{"name":"required","type":"uint256","internalType":"uint256"}]},{"type":"error","name":"InsufficientBalance","inputs":[{"name":"available","type":"uint256","internalType":"uint256"},{"name":"required","type":"uint256","internalType":"uint256"}]},{"type":"error","name":"InvalidAddress","inputs":[{"name":"provided","type":"address","internalType":"address"}]},{"type":"error","name":"MaxSupplyExceeded","inputs":[{"name":"currentSupply","type":"uint256","internalType":"uint256"},{"name":"maxSupply","type":"uint256","internalType":"uint256"}]},{"type":"error","name":"UnauthorizedAccess","inputs":[{"name":"caller","type":"address","internalType":"address"},{"name":"required","type":"address","internalType":"address"}]},{"type":"error","name":"ZeroAmount","inputs":[]}],"bytecode":{"object":"0x608060405234801561000f575f5ffd5b50604051610e90380380610e9083398101604081905261002e916101cb565b6001600160a01b03811661006457604051634726455360e11b81526001600160a01b038216600482015260240160405180910390fd5b5f61006f85826102dc565b50600161007c84826102dc565b50600580546001600160a01b0319166001600160a01b03831617905581156100f05760028290556001600160a01b0381165f818152600360209081526040808320869055518581527fddf252ad1be2c89b69c2b068fc378daa952ba7f163c4a11628f55a4df523b3ef910160405180910390a35b6040516001600160a01b038216905f907f8be0079c531659141344cd1fd0a4f28419497f9722a3daafe3b4186f6b6457e0908290a350505050610396565b634e487b7160e01b5f52604160045260245ffd5b5f82601f830112610151575f5ffd5b81516001600160401b0381111561016a5761016a61012e565b604051601f8201601f19908116603f011681016001600160401b03811182821017156101985761019861012e565b6040528181528382016020018510156101af575f5ffd5b8160208501602083015e5f918101602001919091529392505050565b5f5f5f5f608085870312156101de575f5ffd5b84516001600160401b038111156101f3575f5ffd5b6101ff87828801610142565b602087015190955090506001600160401b0381111561021c575f5ffd5b61022887828801610142565b60408701516060880151919550935090506001600160a01b038116811461024d575f5ffd5b939692955090935050565b600181811c9082168061026c57607f821691505b60208210810361028a57634e487b7160e01b5f52602260045260245ffd5b50919050565b601f8211156102d757805f5260205f20601f840160051c810160208510156102b55750805b601f840160051c820191505b818110156102d4575f81556001016102c1565b50505b505050565b81516001600160401b038111156102f5576102f561012e565b610309816103038454610258565b84610290565b6020601f82116001811461033b575f83156103245750848201515b5f19600385901b1c1916600184901b1784556102d4565b5f84815260208120601f198516915b8281101561036a578785015182556020948501946001909201910161034a565b508482101561038757868401515f19600387901b60f8161c191681555b50505050600190811b01905550565b610aed806103a35f395ff3fe608060405234801561000f575f5ffd5b5060043610610106575f3560e01c806370a082311161009e5780638da5cb5b1161006e5780638da5cb5b1461021057806395d89b411461022b578063a9059cbb14610233578063dd62ed3e14610246578063f2fde38b1461027e575f5ffd5b806370a08231146101ba578063715018a6146101e257806379cc6790146101ea5780638797a610146101fd575f5ffd5b8063313ce567116100d9578063313ce5671461017057806332cb6b0c1461017f57806340c10f191461019257806342966c68146101a7575f5ffd5b806306fdde031461010a578063095ea7b31461012857806318160ddd1461014b57806323b872dd1461015d575b5f5ffd5b610112610291565b60405161011f9190610926565b60405180910390f35b61013b610136366004610976565b610320565b604051901515815260200161011f565b6002545b60405190815260200161011f565b61013b61016b36600461099e565b610336565b6040516012815260200161011f565b61014f6b033b2e3c9fd0803ce800000081565b6101a56101a0366004610976565b610357565b005b6101a56101b53660046109d8565b610485565b61014f6101c83660046109ef565b6001600160a01b03165f9081526003602052604090205490565b6101a5610501565b6101a56101f8366004610976565b61058e565b6005546001600160a01b0316151561013b565b6005546040516001600160a01b03909116815260200161011f565b610112610620565b61013b610241366004610976565b61062f565b61014f610254366004610a0f565b6001600160a01b039182165f90815260046020908152604080832093909416825291909152205490565b6101a561028c3660046109ef565b61063b565b60605f805461029f90610a40565b80601f01602080910402602001604051908101604052809291908181526020018280546102cb90610a40565b80156103165780601f106102ed57610100808354040283529160200191610316565b820191905f5260205f20905b8154815290600101906020018083116102f957829003601f168201915b5050505050905090565b5f61032c3384846106fe565b5060015b92915050565b5f6103428433846107ba565b61034d848484610825565b5060019392505050565b6005546001600160a01b0316331461039c57600554604051634116c50f60e01b81523360048201526001600160a01b0390911660248201526044015b60405180910390fd5b6001600160a01b0382166103ce57604051634726455360e11b81526001600160a01b0383166004820152602401610393565b5f816002546103dd9190610a78565b90506b033b2e3c9fd0803ce800000081111561042157604051637502c12360e11b8152600481018290526b033b2e3c9fd0803ce80000006024820152604401610393565b60028190556001600160a01b0383165f908152600360205260408120805484929061044d908490610a78565b90915550506040518281526001600160a01b038416905f905f516020610a985f395f51905f52906020015b60405180910390a3505050565b335f90815260036020526040902054818110156104bf5760405163cf47918160e01b81526004810182905260248101839052604401610393565b335f8181526003602090815260408083208686039055600280548790039055518581529192915f516020610a985f395f51905f52910160405180910390a35050565b6005546001600160a01b0316331461054157600554604051634116c50f60e01b81523360048201526001600160a01b039091166024820152604401610393565b600580546001600160a01b031981169091556040516001600160a01b03909116905f9082907f8be0079c531659141344cd1fd0a4f28419497f9722a3daafe3b4186f6b6457e0908390a350565b6105998233836107ba565b6001600160a01b0382165f90815260036020526040902054818110156105dc5760405163cf47918160e01b81526004810182905260248101839052604401610393565b6001600160a01b0383165f8181526003602090815260408083208686039055600280548790039055518581529192915f516020610a985f395f51905f529101610478565b60606001805461029f90610a40565b5f61032c338484610825565b6005546001600160a01b0316331461067b57600554604051634116c50f60e01b81523360048201526001600160a01b039091166024820152604401610393565b6001600160a01b0381166106ad57604051634726455360e11b81526001600160a01b0382166004820152602401610393565b600580546001600160a01b038381166001600160a01b0319831681179093556040519116919082907f8be0079c531659141344cd1fd0a4f28419497f9722a3daafe3b4186f6b6457e0905f90a35050565b6001600160a01b03831661073057604051634726455360e11b81526001600160a01b0384166004820152602401610393565b6001600160a01b03821661076257604051634726455360e11b81526001600160a01b0383166004820152602401610393565b6001600160a01b038381165f8181526004602090815260408083209487168084529482529182902085905590518481527f8c5be1e5ebec7d5bd14f71427d1e84f3dd0314c0f7b2291e5b200ac8c7c3b9259101610478565b6001600160a01b038084165f908152600460209081526040808320938616835292905220545f19811461081f57818110156108125760405163054365bb60e31b81526004810182905260248101839052604401610393565b61081f84848484036106fe565b50505050565b6001600160a01b03831661085757604051634726455360e11b81526001600160a01b0384166004820152602401610393565b6001600160a01b03821661088957604051634726455360e11b81526001600160a01b0383166004820152602401610393565b6001600160a01b0383165f90815260036020526040902054818110156108cc5760405163cf47918160e01b81526004810182905260248101839052604401610393565b6001600160a01b038085165f8181526003602052604080822086860390559286168082529083902080548601905591515f516020610a985f395f51905f52906109189086815260200190565b60405180910390a350505050565b602081525f82518060208401528060208501604085015e5f604082850101526040601f19601f83011684010191505092915050565b80356001600160a01b0381168114610971575f5ffd5b919050565b5f5f60408385031215610987575f5ffd5b6109908361095b565b946020939093013593505050565b5f5f5f606084860312156109b0575f5ffd5b6109b98461095b565b92506109c76020850161095b565b929592945050506040919091013590565b5f602082840312156109e8575f5ffd5b5035919050565b5f602082840312156109ff575f5ffd5b610a088261095b565b9392505050565b5f5f60408385031215610a20575f5ffd5b610a298361095b565b9150610a376020840161095b565b90509250929050565b600181811c90821680610a5457607f821691505b602082108103610a7257634e487b7160e01b5f52602260045260245ffd5b50919050565b8082018082111561033057634e487b7160e01b5f52601160045260245ffdfeddf252ad1be2c89b69c2b068fc378daa952ba7f163c4a11628f55a4df523b3efa2646970667358221220d3e60c74a1c03e57a972a411414d869bf3c0d482d3da588d75e3889ceca79ff464736f6c634300081c0033","linkReferences":{}},"methodIdentifiers":{"MAX_SUPPLY()":"32cb6b0c","allowance(address,address)":"dd62ed3e","approve(address,uint256)":"095ea7b3","balanceOf(address)":"70a08231","burn(uint256)":"42966c68","burnFrom(address,uint256)":"79cc6790","decimals()":"313ce567","hasOwner()":"8797a610","mint(address,uint256)":"40c10f19","name()":"06fdde03","owner()":"8da5cb5b","renounceOwnership()":"715018a6","symbol()":"95d89b41","totalSupply()":"18160ddd","transfer(address,uint256)":"a9059cbb","transferFrom(address,address,uint256)":"23b872dd","transferOwnership(address)":"f2fde38b"},"id":32}