{"abi":[{"type":"constructor","inputs":[],"stateMutability":"nonpayable"},{"type":"function","name":"agentReputation","inputs":[{"name":"","type":"address","internalType":"address"}],"outputs":[{"name":"","type":"uint256","internalType":"uint256"}],"stateMutability":"view"},{"type":"function","name":"applications","inputs":[{"name":"","type":"uint256","internalType":"uint256"},{"name":"","type":"uint256","internalType":"uint256"}],"outputs":[{"name":"agent","type":"address","internalType":"address"},{"name":"proposalURI","type":"string","internalType":"string"},{"name":"appliedAt","type":"uint256","internalType":"uint256"}],"stateMutability":"view"},{"type":"function","name":"applyForTask","inputs":[{"name":"_taskId","type":"uint256","internalType":"uint256"},{"name":"_proposalURI","type":"string","internalType":"string"}],"outputs":[],"stateMutability":"nonpayable"},{"type":"function","name":"arbitrator","inputs":[],"outputs":[{"name":"","type":"address","internalType":"address"}],"stateMutability":"view"},{"type":"function","name":"assignTask","inputs":[{"name":"_taskId","type":"uint256","internalType":"uint256"},{"name":"_assignee","type":"address","internalType":"address"}],"outputs":[],"stateMutability":"nonpayable"},{"type":"function","name":"cancelTask","inputs":[{"name":"_taskId","type":"uint256","internalType":"uint256"}],"outputs":[],"stateMutability":"nonpayable"},{"type":"function","name":"completeTask","inputs":[{"name":"_taskId","type":"uint256","internalType":"uint256"}],"outputs":[],"stateMutability":"nonpayable"},{"type":"function","name":"createTask","inputs":[{"name":"_metadataURI","type":"string","internalType":"string"}],"outputs":[{"name":"","type":"uint256","internalType":"uint256"}],"stateMutability":"payable"},{"type":"function","name":"disputeTask","inputs":[{"name":"_taskId","type":"uint256","internalType":"uint256"}],"outputs":[],"stateMutability":"nonpayable"},{"type":"function","name":"getApplications","inputs":[{"name":"_taskId","type":"uint256","internalType":"uint256"}],"outputs":[{"name":"","type":"tuple[]","internalType":"struct ICognixMarket.Application[]","components":[{"name":"agent","type":"address","internalType":"address"},{"name":"proposalURI","type":"string","internalType":"string"},{"name":"appliedAt","type":"uint256","internalType":"uint256"}]}],"stateMutability":"view"},{"type":"function","name":"owner","inputs":[],"outputs":[{"name":"","type":"address","internalType":"address"}],"stateMutability":"view"},{"type":"function","name":"renounceOwnership","inputs":[],"outputs":[],"stateMutability":"nonpayable"},{"type":"function","name":"resolveDispute","inputs":[{"name":"_taskId","type":"uint256","internalType":"uint256"},{"name":"_payAgent","type":"bool","internalType":"bool"}],"outputs":[],"stateMutability":"nonpayable"},{"type":"function","name":"setArbitrator","inputs":[{"name":"_arbitrator","type":"address","internalType":"address"}],"outputs":[],"stateMutability":"nonpayable"},{"type":"function","name":"submitProof","inputs":[{"name":"_taskId","type":"uint256","internalType":"uint256"},{"name":"_proofURI","type":"string","internalType":"string"}],"outputs":[],"stateMutability":"nonpayable"},{"type":"function","name":"taskCount","inputs":[],"outputs":[{"name":"","type":"uint256","internalType":"uint256"}],"stateMutability":"view"},{"type":"function","name":"tasks","inputs":[{"name":"","type":"uint256","internalType":"uint256"}],"outputs":[{"name":"employer","type":"address","internalType":"address"},{"name":"assignee","type":"address","internalType":"address"},{"name":"metadataURI","type":"string","internalType":"string"},{"name":"reward","type":"uint256","internalType":"uint256"},{"name":"status","type":"uint8","internalType":"enum ICognixMarket.TaskStatus"},{"name":"createdAt","type":"uint256","internalType":"uint256"},{"name":"updatedAt","type":"uint256","internalType":"uint256"}],"stateMutability":"view"},{"type":"function","name":"transferOwnership","inputs":[{"name":"newOwner","type":"address","internalType":"address"}],"outputs":[],"stateMutability":"nonpayable"},{"type":"event","name":"DisputeRaised","inputs":[{"name":"taskId","type":"uint256","indexed":true,"internalType":"uint256"},{"name":"raiser","type":"address","indexed":true,"internalType":"address"}],"anonymous":false},{"type":"event","name":"DisputeResolved","inputs":[{"name":"taskId","type":"uint256","indexed":true,"internalType":"uint256"},{"name":"completed","type":"bool","indexed":false,"internalType":"bool"}],"anonymous":false},{"type":"event","name":"OwnershipTransferred","inputs":[{"name":"previousOwner","type":"address","indexed":true,"internalType":"address"},{"name":"newOwner","type":"address","indexed":true,"internalType":"address"}],"anonymous":false},{"type":"event","name":"ProofSubmitted","inputs":[{"name":"taskId","type":"uint256","indexed":true,"internalType":"uint256"},{"name":"proofURI","type":"string","indexed":false,"internalType":"string"}],"anonymous":false},{"type":"event","name":"TaskApplied","inputs":[{"name":"taskId","type":"uint256","indexed":true,"internalType":"uint256"},{"name":"agent","type":"address","indexed":true,"internalType":"address"},{"name":"proposalURI","type":"string","indexed":false,"internalType":"string"}],"anonymous":false},{"type":"event","name":"TaskAssigned","inputs":[{"name":"taskId","type":"uint256","indexed":true,"internalType":"uint256"},{"name":"assignee","type":"address","indexed":true,"internalType":"address"}],"anonymous":false},{"type":"event","name":"TaskCancelled","inputs":[{"name":"taskId","type":"uint256","indexed":true,"internalType":"uint256"}],"anonymous":false},{"type":"event","name":"TaskCompleted","inputs":[{"name":"taskId","type":"uint256","indexed":true,"internalType":"uint256"}],"anonymous":false},{"type":"event","name":"TaskCreated","inputs":[{"name":"taskId","type":"uint256","indexed":true,"internalType":"uint256"},{"name":"employer","type":"address","indexed":true,"internalType":"address"},{"name":"reward","type":"uint256","indexed":false,"internalType":"uint256"},{"name":"metadataURI","type":"string","indexed":false,"internalType":"string"}],"anonymous":false},{"type":"error","name":"OwnableInvalidOwner","inputs":[{"name":"owner","type":"address","internalType":"address"}]},{"type":"error","name":"OwnableUnauthorizedAccount","inputs":[{"name":"account","type":"address","internalType":"address"}]},{"type":"error","name":"ReentrancyGuardReentrantCall","inputs":[]}],"bytecode":{"object":"0x6080806040523460a75760017f9b779b17422d0df92223018b32b4d1fa46e071723d6817e2486d003becc55f005533156094575f8054336001600160a01b0319821681178355916001600160a01b03909116907f8be0079c531659141344cd1fd0a4f28419497f9722a3daafe3b4186f6b6457e09080a3600280546001600160a01b0319163317905561154f90816100ac8239f35b631e4fbdf760e01b5f525f60045260245ffd5b5f80fdfe6080806040526004361015610012575f80fd5b5f3560e01c908163111002aa14610e93575080632af0051014610da357806334b25ee214610bae5780635293ee8114610ae157806354de6e3214610aa95780636cc6cde114610a81578063715018a614610a2a5780637a870b63146109b25780637eec20a8146108d25780638d977672146108315780638da5cb5b1461080a57806390ce6787146105c857806397d9c23e14610497578063b0eefabe14610454578063b6cb58a514610437578063bc8c937d146102f6578063e1e295581461016b5763f2fde38b146100e2575f80fd5b34610167576020366003190112610167576100fb6111a1565b6101036114d3565b6001600160a01b03168015610154575f80546001600160a01b03198116831782556001600160a01b0316907f8be0079c531659141344cd1fd0a4f28419497f9722a3daafe3b4186f6b6457e09080a3005b631e4fbdf760e01b5f525f60045260245ffd5b5f80fd5b3461016757602036600319011261016757600435805f52600360205261019e60018060a01b0360405f205416331461145f565b6101a661149b565b805f52600360205260405f206004810160ff81541660068110156102e257600281149081156102d7575b50156102a0575f8080938193600360ff1982541617905542600682015560036001820160018060a01b038154168452600560205260408420610212815461131e565b905554910154906001600160a01b03165af161022c6113f4565b5015610269577fc1fa7142cfb933d0855114a3bffde296944c30b727f297c14d0db4d553d3a5c75f80a260015f5160206114fa5f395f51905f5255005b60405162461bcd60e51b815260206004820152600f60248201526e151c985b9cd9995c8819985a5b1959608a1b6044820152606490fd5b60405162461bcd60e51b815260206004820152600f60248201526e43616e6e6f7420636f6d706c65746560881b6044820152606490fd5b6001915014846101d0565b634e487b7160e01b5f52602160045260245ffd5b34610167576020366003190112610167576004355f52600460205260405f2080549067ffffffffffffffff8211610423576040519161033b60208260051b0184611238565b8083526020830180925f5260205f205f915b8383106103de57848660405191829160208301906020845251809152604083019060408160051b85010192915f905b82821061038b57505050500390f35b919360019193955060208091603f19898203018552875190848060a01b0382511681526040806103c88585015160608786015260608501906112fa565b930151910152960192019201859493919261037c565b600360206001926040516103f18161121c565b848060a01b03865416815261040785870161125a565b838201526002860154604082015281520192019201919061034d565b634e487b7160e01b5f52604160045260245ffd5b34610167575f366003190112610167576020600154604051908152f35b346101675760203660031901126101675761046d6111a1565b6104756114d3565b600280546001600160a01b0319166001600160a01b0392909216919091179055005b3461016757602036600319011261016757600435805f52600360205260405f2060018060a01b03815416331480156105b2575b1561057c576004810160ff81541660068110156102e25760018114908115610571575b501561052c57600560ff1982541617905560064291015533907f84a477df8a28a4276ca6dee4458a06c3015f30c477d9c949ede4e13ff8a552b45f80a3005b60405162461bcd60e51b815260206004820152601a60248201527f496e76616c69642073746174757320666f7220646973707574650000000000006044820152606490fd5b6002915014846104ed565b60405162461bcd60e51b815260206004820152600e60248201526d139bdd08185d5d1a1bdc9a5e995960921b6044820152606490fd5b5060018101546001600160a01b031633146104ca565b34610167576105d63661116d565b9190815f52600360205260ff600460405f2001541660068110156102e2576105fe90156113b2565b815f52600460205260405f20604051906106178261121c565b33825261062536868561135c565b60208301908152604083019142835280546801000000000000000081101561042357610656916001820181556111b7565b9390936107f7575183546001600160a01b0319166001600160a01b0391909116178355518051600184019167ffffffffffffffff82116104235761069a83546111e4565b601f81116107b2575b50602090601f83116001146107255792826002937f4cb4528f41569ebb19d70648b6fd4a79ed373162227a9a4de39fc41ab5e657a398969361071598965f9261071a575b50508160011b915f199060031b1c19161790555b519101556040519182916020835233966020840191611392565b0390a3005b015190508b806106e7565b90601f19831691845f52815f20925f5b81811061079a5750937f4cb4528f41569ebb19d70648b6fd4a79ed373162227a9a4de39fc41ab5e657a39896936107159896936001938360029810610782575b505050811b0190556106fb565b01515f1960f88460031b161c191690558b8080610775565b92936020600181928786015181550195019301610735565b835f5260205f20601f840160051c810191602085106107ed575b601f0160051c01905b8181106107e257506106a3565b5f81556001016107d5565b90915081906107cc565b634e487b7160e01b5f525f60045260245ffd5b34610167575f366003190112610167575f546040516001600160a01b039091168152602090f35b34610167576020366003190112610167576004355f908152600360205260409020805460018201546001600160a01b03918216929116906108746002820161125a565b916003820154916108ae60ff600483015416946006600584015493015493604051978852602088015260e0604088015260e08701906112fa565b92606086015260068410156102e2578493608085015260a084015260c08301520390f35b3461016757602036600319011261016757600435805f52600360205261090560018060a01b0360405f205416331461145f565b805f52600360205260ff600460405f2001541660068110156102e25761092b90156113b2565b61093361149b565b805f52600360205261097b5f8080806040812060048101600460ff19825416179055426006820155600360018060a01b03825416910154905af16109756113f4565b50611423565b7fc6eacc3aa5b2aa77b5a826b832a804ca0b71830ec74f9aa57a15edd978c31ed65f80a260015f5160206114fa5f395f51905f5255005b34610167576040366003190112610167576024356004355f52600460205260405f20908154811015610167576109e7916111b7565b5080546001600160a01b03166002610a016001840161125a565b920154610a2060405193849384526060602085015260608401906112fa565b9060408301520390f35b34610167575f36600319011261016757610a426114d3565b5f80546001600160a01b0319811682556001600160a01b03167f8be0079c531659141344cd1fd0a4f28419497f9722a3daafe3b4186f6b6457e08280a3005b34610167575f366003190112610167576002546040516001600160a01b039091168152602090f35b34610167576020366003190112610167576001600160a01b03610aca6111a1565b165f526005602052602060405f2054604051908152f35b34610167576040366003190112610167576024356001600160a01b038116906004359082900361016757805f526003602052610b2a60018060a01b0360405f205416331461145f565b805f52600360205260ff600460405f2001541660068110156102e257610b5090156113b2565b5f818152600360205260408120600181810180546001600160a01b0319168617905560048201805460ff19169091179055426006909101557f52476d55ecef5cf13caa64038f297fe6bbf865d9584a98b8722a15a6d5db128f9080a3005b34610167576040366003190112610167576004356024358015159081810361016757610bd861149b565b6002546001600160a01b03163303610d6c57825f52600360205260405f2090600482019060ff82541660068110156102e257600503610d385715610ce1575f8080938193600360ff1982541617905560036001820160018060a01b038154168452600560205260408420610c4c815461131e565b905554910154906001600160a01b03165af1610c666113f4565b5015610cab5760207f5a87909bff68caaaaf0b3fd9c74eeccc928832f879315e5c6fb7a73612f26c0c915b604051908152a260015f5160206114fa5f395f51905f5255005b60405162461bcd60e51b815260206004820152600e60248201526d14185e5b595b9d0819985a5b195960921b6044820152606490fd5b91610d335f8080806020967f5a87909bff68caaaaf0b3fd9c74eeccc928832f879315e5c6fb7a73612f26c0c98600460ff19825416179055600360018060a01b03825416910154905af16109756113f4565b610c91565b60405162461bcd60e51b815260206004820152600c60248201526b139bdd08191a5cdc1d5d195960a21b6044820152606490fd5b60405162461bcd60e51b815260206004820152600f60248201526e27b7363c9030b93134ba3930ba37b960891b6044820152606490fd5b3461016757610db13661116d565b5f838152600360205260409020600101549091906001600160a01b03163303610e5e57825f52600360205260ff600460405f200154169160068310156102e257610e1e60017fc577bdeb8da1059fec56a8d1554e25846f18ebf046c214b145cac25f76bda35094146113b2565b5f8481526003602090815260409182902060048101805460ff19166002179055426006909101559051818152928392610e5992840191611392565b0390a2005b60405162461bcd60e51b815260206004820152600d60248201526c4f6e6c792061737369676e656560981b6044820152606490fd5b60203660031901126101675760043567ffffffffffffffff811161016757610ebf90369060040161113f565b909134156111085750610ed360015461131e565b90816001556040519260e0840184811067ffffffffffffffff8211176104235760405233845260208401905f8252610f0c36848361135c565b604086810191825234606088019081525f608089018181524260a08b0181815260c08c019182528a845260036020529490922099518a546001600160a01b03199081166001600160a01b03928316178c55975160018c0180549099169116179096559251805193959294929360028a019167ffffffffffffffff8211610423578190610f9884546111e4565b601f81116110b8575b50602090601f8311600114611055575f9261104a575b50508160011b915f199060031b1c19161790555b5160038801556004870191519660068810156102e257600687957fedce45cc3fc2bea98c94b72104f4a750dcc91bd183a01870ed4f93a365eba5b99561103f9560209b60ff801983541691161790555160058401555191015560405191829134835260408984015233966040840191611392565b0390a3604051908152f35b015190508b80610fb7565b5f8581528281209350601f198516905b8181106110a05750908460019594939210611088575b505050811b019055610fcb565b01515f1960f88460031b161c191690558b808061107b565b92936020600181928786015181550195019301611065565b909150835f5260205f20601f840160051c810191602085106110fe575b90601f859493920160051c01905b8181106110f05750610fa1565b5f81558493506001016110e3565b90915081906110d5565b62461bcd60e51b81526020600482015260126024820152710526577617264206d757374206265203e20360741b6044820152606490fd5b9181601f840112156101675782359167ffffffffffffffff8311610167576020838186019501011161016757565b90604060031983011261016757600435916024359067ffffffffffffffff82116101675761119d9160040161113f565b9091565b600435906001600160a01b038216820361016757565b80548210156111d0575f52600360205f20910201905f90565b634e487b7160e01b5f52603260045260245ffd5b90600182811c92168015611212575b60208310146111fe57565b634e487b7160e01b5f52602260045260245ffd5b91607f16916111f3565b6060810190811067ffffffffffffffff82111761042357604052565b90601f8019910116810190811067ffffffffffffffff82111761042357604052565b9060405191825f82549261126d846111e4565b80845293600181169081156112d85750600114611294575b5061129292500383611238565b565b90505f9291925260205f20905f915b8183106112bc575050906020611292928201015f611285565b60209193508060019154838589010152019101909184926112a3565b90506020925061129294915060ff191682840152151560051b8201015f611285565b805180835260209291819084018484015e5f828201840152601f01601f1916010190565b5f19811461132c5760010190565b634e487b7160e01b5f52601160045260245ffd5b67ffffffffffffffff811161042357601f01601f191660200190565b92919261136882611340565b916113766040519384611238565b829481845281830111610167578281602093845f960137010152565b908060209392818452848401375f828201840152601f01601f1916010190565b156113b957565b60405162461bcd60e51b8152602060048201526013602482015272496e76616c6964207461736b2073746174757360681b6044820152606490fd5b3d1561141e573d9061140582611340565b916114136040519384611238565b82523d5f602084013e565b606090565b1561142a57565b60405162461bcd60e51b815260206004820152600d60248201526c1499599d5b990819985a5b1959609a1b6044820152606490fd5b1561146657565b60405162461bcd60e51b815260206004820152600d60248201526c27b7363c9032b6b83637bcb2b960991b6044820152606490fd5b60025f5160206114fa5f395f51905f5254146114c45760025f5160206114fa5f395f51905f5255565b633ee5aeb560e01b5f5260045ffd5b5f546001600160a01b031633036114e657565b63118cdaa760e01b5f523360045260245ffdfe9b779b17422d0df92223018b32b4d1fa46e071723d6817e2486d003becc55f00a2646970667358221220e607b79e1532bf7aaad6040b78902bc130be8bda94b6040457c5f760beadc31364736f6c634300081c0033","linkReferences":{}},"methodIdentifiers":{"agentReputation(address)":"54de6e32","applications(uint256,uint256)":"7a870b63","applyForTask(uint256,string)":"90ce6787","arbitrator()":"6cc6cde1","assignTask(uint256,address)":"5293ee81","cancelTask(uint256)":"7eec20a8","completeTask(uint256)":"e1e29558","createTask(string)":"111002aa","disputeTask(uint256)":"97d9c23e","getApplications(uint256)":"bc8c937d","owner()":"8da5cb5b","renounceOwnership()":"715018a6","resolveDispute(uint256,bool)":"34b25ee2","setArbitrator(address)":"b0eefabe","submitProof(uint256,string)":"2af00510","taskCount()":"b6cb58a5","tasks(uint256)":"8d977672","transferOwnership(address)":"f2fde38b"},"id":20}