{"abi":[{"type":"constructor","inputs":[{"name":"_nativeToken","type":"address","internalType":"address"}],"stateMutability":"nonpayable"},{"type":"function","name":"agentReputation","inputs":[{"name":"","type":"address","internalType":"address"}],"outputs":[{"name":"","type":"uint256","internalType":"uint256"}],"stateMutability":"view"},{"type":"function","name":"applications","inputs":[{"name":"","type":"uint256","internalType":"uint256"},{"name":"","type":"uint256","internalType":"uint256"}],"outputs":[{"name":"agent","type":"address","internalType":"address"},{"name":"proposalURI","type":"string","internalType":"string"},{"name":"stakedAmount","type":"uint256","internalType":"uint256"},{"name":"appliedAt","type":"uint256","internalType":"uint256"}],"stateMutability":"view"},{"type":"function","name":"applyForTask","inputs":[{"name":"_taskId","type":"uint256","internalType":"uint256"},{"name":"_stakeAmount","type":"uint256","internalType":"uint256"},{"name":"_proposalURI","type":"string","internalType":"string"}],"outputs":[],"stateMutability":"nonpayable"},{"type":"function","name":"arbitrator","inputs":[],"outputs":[{"name":"","type":"address","internalType":"address"}],"stateMutability":"view"},{"type":"function","name":"assignTask","inputs":[{"name":"_taskId","type":"uint256","internalType":"uint256"},{"name":"_assignee","type":"address","internalType":"address"}],"outputs":[],"stateMutability":"nonpayable"},{"type":"function","name":"cancelTask","inputs":[{"name":"_taskId","type":"uint256","internalType":"uint256"}],"outputs":[],"stateMutability":"nonpayable"},{"type":"function","name":"completeTask","inputs":[{"name":"_taskId","type":"uint256","internalType":"uint256"}],"outputs":[],"stateMutability":"nonpayable"},{"type":"function","name":"createTask","inputs":[{"name":"_metadataURI","type":"string","internalType":"string"}],"outputs":[{"name":"","type":"uint256","internalType":"uint256"}],"stateMutability":"payable"},{"type":"function","name":"createTaskWithToken","inputs":[{"name":"_token","type":"address","internalType":"address"},{"name":"_amount","type":"uint256","internalType":"uint256"},{"name":"_metadataURI","type":"string","internalType":"string"}],"outputs":[{"name":"","type":"uint256","internalType":"uint256"}],"stateMutability":"nonpayable"},{"type":"function","name":"disputeTask","inputs":[{"name":"_taskId","type":"uint256","internalType":"uint256"}],"outputs":[],"stateMutability":"nonpayable"},{"type":"function","name":"getApplications","inputs":[{"name":"_taskId","type":"uint256","internalType":"uint256"}],"outputs":[{"name":"","type":"tuple[]","internalType":"struct ICognixMarket.Application[]","components":[{"name":"agent","type":"address","internalType":"address"},{"name":"proposalURI","type":"string","internalType":"string"},{"name":"stakedAmount","type":"uint256","internalType":"uint256"},{"name":"appliedAt","type":"uint256","internalType":"uint256"}]}],"stateMutability":"view"},{"type":"function","name":"nativeToken","inputs":[],"outputs":[{"name":"","type":"address","internalType":"contract IERC20"}],"stateMutability":"view"},{"type":"function","name":"owner","inputs":[],"outputs":[{"name":"","type":"address","internalType":"address"}],"stateMutability":"view"},{"type":"function","name":"renounceOwnership","inputs":[],"outputs":[],"stateMutability":"nonpayable"},{"type":"function","name":"resolveDispute","inputs":[{"name":"_taskId","type":"uint256","internalType":"uint256"},{"name":"_payAgent","type":"bool","internalType":"bool"}],"outputs":[],"stateMutability":"nonpayable"},{"type":"function","name":"setArbitrator","inputs":[{"name":"_arbitrator","type":"address","internalType":"address"}],"outputs":[],"stateMutability":"nonpayable"},{"type":"function","name":"setTokenStatus","inputs":[{"name":"_token","type":"address","internalType":"address"},{"name":"_status","type":"bool","internalType":"bool"}],"outputs":[],"stateMutability":"nonpayable"},{"type":"function","name":"submitProof","inputs":[{"name":"_taskId","type":"uint256","internalType":"uint256"},{"name":"_proofURI","type":"string","internalType":"string"}],"outputs":[],"stateMutability":"nonpayable"},{"type":"function","name":"taskCount","inputs":[],"outputs":[{"name":"","type":"uint256","internalType":"uint256"}],"stateMutability":"view"},{"type":"function","name":"tasks","inputs":[{"name":"","type":"uint256","internalType":"uint256"}],"outputs":[{"name":"employer","type":"address","internalType":"address"},{"name":"assignee","type":"address","internalType":"address"},{"name":"token","type":"address","internalType":"address"},{"name":"metadataURI","type":"string","internalType":"string"},{"name":"reward","type":"uint256","internalType":"uint256"},{"name":"status","type":"uint8","internalType":"enum ICognixMarket.TaskStatus"},{"name":"createdAt","type":"uint256","internalType":"uint256"},{"name":"updatedAt","type":"uint256","internalType":"uint256"}],"stateMutability":"view"},{"type":"function","name":"transferOwnership","inputs":[{"name":"newOwner","type":"address","internalType":"address"}],"outputs":[],"stateMutability":"nonpayable"},{"type":"function","name":"whitelistedTokens","inputs":[{"name":"","type":"address","internalType":"address"}],"outputs":[{"name":"","type":"bool","internalType":"bool"}],"stateMutability":"view"},{"type":"event","name":"DisputeRaised","inputs":[{"name":"taskId","type":"uint256","indexed":true,"internalType":"uint256"},{"name":"raiser","type":"address","indexed":true,"internalType":"address"}],"anonymous":false},{"type":"event","name":"DisputeResolved","inputs":[{"name":"taskId","type":"uint256","indexed":true,"internalType":"uint256"},{"name":"completed","type":"bool","indexed":false,"internalType":"bool"}],"anonymous":false},{"type":"event","name":"OwnershipTransferred","inputs":[{"name":"previousOwner","type":"address","indexed":true,"internalType":"address"},{"name":"newOwner","type":"address","indexed":true,"internalType":"address"}],"anonymous":false},{"type":"event","name":"ProofSubmitted","inputs":[{"name":"taskId","type":"uint256","indexed":true,"internalType":"uint256"},{"name":"proofURI","type":"string","indexed":false,"internalType":"string"}],"anonymous":false},{"type":"event","name":"TaskApplied","inputs":[{"name":"taskId","type":"uint256","indexed":true,"internalType":"uint256"},{"name":"agent","type":"address","indexed":true,"internalType":"address"},{"name":"stakedAmount","type":"uint256","indexed":false,"internalType":"uint256"},{"name":"proposalURI","type":"string","indexed":false,"internalType":"string"}],"anonymous":false},{"type":"event","name":"TaskAssigned","inputs":[{"name":"taskId","type":"uint256","indexed":true,"internalType":"uint256"},{"name":"assignee","type":"address","indexed":true,"internalType":"address"}],"anonymous":false},{"type":"event","name":"TaskCancelled","inputs":[{"name":"taskId","type":"uint256","indexed":true,"internalType":"uint256"}],"anonymous":false},{"type":"event","name":"TaskCompleted","inputs":[{"name":"taskId","type":"uint256","indexed":true,"internalType":"uint256"}],"anonymous":false},{"type":"event","name":"TaskCreated","inputs":[{"name":"taskId","type":"uint256","indexed":true,"internalType":"uint256"},{"name":"employer","type":"address","indexed":true,"internalType":"address"},{"name":"token","type":"address","indexed":false,"internalType":"address"},{"name":"reward","type":"uint256","indexed":false,"internalType":"uint256"},{"name":"metadataURI","type":"string","indexed":false,"internalType":"string"}],"anonymous":false},{"type":"error","name":"OwnableInvalidOwner","inputs":[{"name":"owner","type":"address","internalType":"address"}]},{"type":"error","name":"OwnableUnauthorizedAccount","inputs":[{"name":"account","type":"address","internalType":"address"}]},{"type":"error","name":"ReentrancyGuardReentrantCall","inputs":[]},{"type":"error","name":"SafeERC20FailedOperation","inputs":[{"name":"token","type":"address","internalType":"address"}]}],"bytecode":{"object":"0x608060405234801561000f575f5ffd5b506040516120e23803806120e283398101604081905261002e9161011a565b60017f9b779b17422d0df92223018b32b4d1fa46e071723d6817e2486d003becc55f0055338061007757604051631e4fbdf760e01b81525f600482015260240160405180910390fd5b610080816100cb565b50600280546001600160a01b03199081163317909155600380546001600160a01b039390931692909116821790555f908152600760205260409020805460ff19166001179055610147565b5f80546001600160a01b038381166001600160a01b0319831681178455604051919092169283917f8be0079c531659141344cd1fd0a4f28419497f9722a3daafe3b4186f6b6457e09190a35050565b5f6020828403121561012a575f5ffd5b81516001600160a01b0381168114610140575f5ffd5b9392505050565b611f8e806101545f395ff3fe608060405260043610610131575f3560e01c80638d977672116100a8578063bc8c937d1161006d578063bc8c937d1461035e578063d04088af1461038a578063daf9c210146103a9578063e1758bd8146103e7578063e1e2955814610406578063f2fde38b14610425575f5ffd5b80638d977672146102bc5780638da5cb5b146102ef57806397d9c23e1461030b578063b0eefabe1461032a578063b6cb58a514610349575f5ffd5b80635293ee81116100f95780635293ee81146101d957806354de6e32146101f85780636cc6cde114610223578063715018a61461025a5780637a870b631461026e5780637eec20a81461029d575f5ffd5b8063111002aa146101355780632af005101461015b578063306e25fc1461017c57806334b25ee21461019b5780634cd73548146101ba575b5f5ffd5b610148610143366004611944565b610444565b6040519081526020015b60405180910390f35b348015610166575f5ffd5b5061017a610175366004611983565b6104a1565b005b348015610187575f5ffd5b506101486101963660046119e6565b6105a9565b3480156101a6575f5ffd5b5061017a6101b5366004611a4b565b610676565b3480156101c5575f5ffd5b5061017a6101d4366004611a75565b610855565b3480156101e4575f5ffd5b5061017a6101f3366004611a9d565b610887565b348015610203575f5ffd5b50610148610212366004611abe565b60066020525f908152604090205481565b34801561022e575f5ffd5b50600254610242906001600160a01b031681565b6040516001600160a01b039091168152602001610152565b348015610265575f5ffd5b5061017a610a9d565b348015610279575f5ffd5b5061028d610288366004611ad7565b610ab0565b6040516101529493929190611b25565b3480156102a8575f5ffd5b5061017a6102b7366004611b5b565b610b86565b3480156102c7575f5ffd5b506102db6102d6366004611b5b565b610d23565b604051610152989796959493929190611b86565b3480156102fa575f5ffd5b505f546001600160a01b0316610242565b348015610316575f5ffd5b5061017a610325366004611b5b565b610dfe565b348015610335575f5ffd5b5061017a610344366004611abe565b610f2e565b348015610354575f5ffd5b5061014860015481565b348015610369575f5ffd5b5061037d610378366004611b5b565b610f58565b6040516101529190611bfd565b348015610395575f5ffd5b5061017a6103a4366004611c96565b611080565b3480156103b4575f5ffd5b506103d76103c3366004611abe565b60076020525f908152604090205460ff1681565b6040519015158152602001610152565b3480156103f2575f5ffd5b50600354610242906001600160a01b031681565b348015610411575f5ffd5b5061017a610420366004611b5b565b611208565b348015610430575f5ffd5b5061017a61043f366004611abe565b611392565b5f5f341161048e5760405162461bcd60e51b81526020600482015260126024820152710526577617264206d757374206265203e20360741b60448201526064015b60405180910390fd5b61049a5f3485856113cf565b9392505050565b5f8381526004602052604090206001015483906001600160a01b031633146104fb5760405162461bcd60e51b815260206004820152600d60248201526c4f6e6c792061737369676e656560981b6044820152606401610485565b836001805f83815260046020526040902060059081015460ff169081111561052557610525611b72565b146105425760405162461bcd60e51b815260040161048590611ccd565b5f868152600460205260409081902060058101805460ff19166002179055426007909101555186907fc577bdeb8da1059fec56a8d1554e25846f18ebf046c214b145cac25f76bda350906105999088908890611d22565b60405180910390a2505050505050565b6001600160a01b0384165f9081526007602052604081205460ff166106085760405162461bcd60e51b8152602060048201526015602482015274151bdad95b881b9bdd081dda1a5d195b1a5cdd1959605a1b6044820152606401610485565b5f841161064c5760405162461bcd60e51b81526020600482015260126024820152710416d6f756e74206d757374206265203e20360741b6044820152606401610485565b6106616001600160a01b038616333087611580565b61066d858585856113cf565b95945050505050565b61067e6115b6565b6002546001600160a01b031633146106ca5760405162461bcd60e51b815260206004820152600f60248201526e27b7363c9030b93134ba3930ba37b960891b6044820152606401610485565b5f82815260046020526040902060058082015460ff16818111156106f0576106f0611b72565b1461072c5760405162461bcd60e51b815260206004820152600c60248201526b139bdd08191a5cdc1d5d195960a21b6044820152606401610485565b81156107b15760058101805460ff1916600317905560018101546001600160a01b03165f90815260066020526040812080549161076883611d3d565b9091555050600181015460028201546004830154610793926001600160a01b039081169216906115d1565b60018101546107ac9084906001600160a01b031661168d565b6107fe565b60058101805460ff1916600490811790915581546002830154918301546107e5926001600160a01b039283169216906115d1565b60018101546107fe9084906001600160a01b031661168d565b827f5a87909bff68caaaaf0b3fd9c74eeccc928832f879315e5c6fb7a73612f26c0c83604051610832911515815260200190565b60405180910390a25061085160015f516020611f395f395f51905f5255565b5050565b61085d611751565b6001600160a01b03919091165f908152600760205260409020805460ff1916911515919091179055565b5f8281526004602052604090205482906001600160a01b031633146108be5760405162461bcd60e51b815260040161048590611d61565b825f805f83815260046020526040902060059081015460ff16908111156108e7576108e7611b72565b146109045760405162461bcd60e51b815260040161048590611ccd565b5f858152600460209081526040808320600180820180546001600160a01b0319166001600160a01b038b161790556005808301805460ff1916909217909155426007909201919091559091528120905b8154811015610a5f57856001600160a01b031682828154811061097957610979611d88565b5f9182526020909120600490910201546001600160a01b0316148015906109c057505f8282815481106109ae576109ae611d88565b905f5260205f20906004020160020154115b15610a5757610a308282815481106109da576109da611d88565b5f91825260209091206004909102015483546001600160a01b0390911690849084908110610a0a57610a0a611d88565b5f9182526020909120600260049092020101546003546001600160a01b0316919061177d565b5f828281548110610a4357610a43611d88565b905f5260205f209060040201600201819055505b600101610954565b506040516001600160a01b0386169087907f52476d55ecef5cf13caa64038f297fe6bbf865d9584a98b8722a15a6d5db128f905f90a3505050505050565b610aa5611751565b610aae5f6117b2565b565b6005602052815f5260405f208181548110610ac9575f80fd5b5f918252602090912060049091020180546001820180546001600160a01b039092169450919250610af990611d9c565b80601f0160208091040260200160405190810160405280929190818152602001828054610b2590611d9c565b8015610b705780601f10610b4757610100808354040283529160200191610b70565b820191905f5260205f20905b815481529060010190602001808311610b5357829003601f168201915b5050505050908060020154908060030154905084565b5f8181526004602052604090205481906001600160a01b03163314610bbd5760405162461bcd60e51b815260040161048590611d61565b815f805f83815260046020526040902060059081015460ff1690811115610be657610be6611b72565b14610c035760405162461bcd60e51b815260040161048590611ccd565b610c0b6115b6565b5f84815260046020819052604090912060058101805460ff19168317905542600782015580546002820154928201549192610c55926001600160a01b0392831692909116906115d1565b5f858152600560205260408120905b8154811015610cda575f828281548110610c8057610c80611d88565b905f5260205f209060040201600201541115610cd257610cab8282815481106109da576109da611d88565b5f828281548110610cbe57610cbe611d88565b905f5260205f209060040201600201819055505b600101610c64565b5060405186907fc6eacc3aa5b2aa77b5a826b832a804ca0b71830ec74f9aa57a15edd978c31ed6905f90a25050610d1d60015f516020611f395f395f51905f5255565b50505050565b60046020525f908152604090208054600182015460028301546003840180546001600160a01b0394851695938516949092169291610d6090611d9c565b80601f0160208091040260200160405190810160405280929190818152602001828054610d8c90611d9c565b8015610dd75780601f10610dae57610100808354040283529160200191610dd7565b820191905f5260205f20905b815481529060010190602001808311610dba57829003601f168201915b505050506004830154600584015460068501546007909501549394919360ff909116925088565b5f81815260046020526040902080546001600160a01b0316331480610e2f575060018101546001600160a01b031633145b610e6c5760405162461bcd60e51b815260206004820152600e60248201526d139bdd08185d5d1a1bdc9a5e995960921b6044820152606401610485565b600160058083015460ff1690811115610e8757610e87611b72565b1480610eab5750600260058083015460ff1690811115610ea957610ea9611b72565b145b610ee85760405162461bcd60e51b815260206004820152600e60248201526d496e76616c69642073746174757360901b6044820152606401610485565b6005818101805460ff19169091179055426007820155604051339083907f84a477df8a28a4276ca6dee4458a06c3015f30c477d9c949ede4e13ff8a552b4905f90a35050565b610f36611751565b600280546001600160a01b0319166001600160a01b0392909216919091179055565b606060055f8381526020019081526020015f20805480602002602001604051908101604052809291908181526020015f905b82821015611075575f84815260209081902060408051608081019091526004850290910180546001600160a01b031682526001810180549293919291840191610fd290611d9c565b80601f0160208091040260200160405190810160405280929190818152602001828054610ffe90611d9c565b80156110495780601f1061102057610100808354040283529160200191611049565b820191905f5260205f20905b81548152906001019060200180831161102c57829003601f168201915b505050505081526020016002820154815260200160038201548152505081526020019060010190610f8a565b505050509050919050565b835f805f83815260046020526040902060059081015460ff16908111156110a9576110a9611b72565b146110c65760405162461bcd60e51b815260040161048590611ccd565b84156110e4576003546110e4906001600160a01b0316333088611580565b60055f8781526020019081526020015f206040518060800160405280336001600160a01b0316815260200186868080601f0160208091040260200160405190810160405280939291908181526020018383808284375f92018290525093855250505060208083018a90524260409093019290925283546001808201865594825290829020835160049092020180546001600160a01b0319166001600160a01b039092169190911781559082015191929091908201906111a39082611e33565b5060408201518160020155606082015181600301555050336001600160a01b0316867fb98213a49a2554eb2b3dafb7f418f1ca099120d79a8d07ab4c407d895d71a3ff8787876040516111f893929190611eee565b60405180910390a3505050505050565b5f8181526004602052604090205481906001600160a01b0316331461123f5760405162461bcd60e51b815260040161048590611d61565b6112476115b6565b5f828152600460205260409020600260058083015460ff169081111561126f5761126f611b72565b14806112935750600160058083015460ff169081111561129157611291611b72565b145b6112d15760405162461bcd60e51b815260206004820152600f60248201526e43616e6e6f7420636f6d706c65746560881b6044820152606401610485565b60058101805460ff1916600317905542600782015560018101546001600160a01b03165f90815260066020526040812080549161130d83611d3d565b9091555050600181015460028201546004830154611338926001600160a01b039081169216906115d1565b60018101546113519084906001600160a01b031661168d565b60405183907fc1fa7142cfb933d0855114a3bffde296944c30b727f297c14d0db4d553d3a5c7905f90a25061085160015f516020611f395f395f51905f5255565b61139a611751565b6001600160a01b0381166113c357604051631e4fbdf760e01b81525f6004820152602401610485565b6113cc816117b2565b50565b5f5f60015f81546113df90611d3d565b9190508190559050604051806101000160405280336001600160a01b031681526020015f6001600160a01b03168152602001876001600160a01b0316815260200185858080601f0160208091040260200160405190810160405280939291908181526020018383808284375f9201829052509385525050506020820188905260409091019081524260208083018290526040928301919091525f84815260048252829020835181546001600160a01b03199081166001600160a01b03928316178355928501516001830180548516918316919091179055928401516002820180549093169316929092179055606082015160038201906114df9082611e33565b506080820151816004015560a0820151816005015f6101000a81548160ff0219169083600581111561151357611513611b72565b021790555060c0820151816006015560e08201518160070155905050336001600160a01b0316817f9d1a74ff76ed8be69c0f070201c5d6d58a0a971e56ad1b15a9d4efea4df9e3e78888888860405161156f9493929190611f07565b60405180910390a395945050505050565b61158e848484846001611801565b610d1d57604051635274afe760e01b81526001600160a01b0385166004820152602401610485565b6115be61186e565b60025f516020611f395f395f51905f5255565b6001600160a01b038216611674575f836001600160a01b0316826040515f6040518083038185875af1925050503d805f8114611628576040519150601f19603f3d011682016040523d82523d5f602084013e61162d565b606091505b5050905080610d1d5760405162461bcd60e51b8152602060048201526013602482015272115512081d1c985b9cd9995c8819985a5b1959606a1b6044820152606401610485565b6116886001600160a01b038316848361177d565b505050565b5f828152600560205260408120905b8154811015610d1d57826001600160a01b03168282815481106116c1576116c1611d88565b5f9182526020909120600490910201546001600160a01b031614801561170757505f8282815481106116f5576116f5611d88565b905f5260205f20906004020160020154115b156117495761172283838381548110610a0a57610a0a611d88565b5f82828154811061173557611735611d88565b905f5260205f209060040201600201819055505b60010161169c565b5f546001600160a01b03163314610aae5760405163118cdaa760e01b8152336004820152602401610485565b61178a838383600161189d565b61168857604051635274afe760e01b81526001600160a01b0384166004820152602401610485565b5f80546001600160a01b038381166001600160a01b0319831681178455604051919092169283917f8be0079c531659141344cd1fd0a4f28419497f9722a3daafe3b4186f6b6457e09190a35050565b6040516323b872dd60e01b5f8181526001600160a01b038781166004528616602452604485905291602083606481808c5af1925060015f5114831661185d578383151615611851573d5f823e3d81fd5b5f883b113d1516831692505b604052505f60605295945050505050565b5f516020611f395f395f51905f5254600203610aae57604051633ee5aeb560e01b815260040160405180910390fd5b60405163a9059cbb60e01b5f8181526001600160a01b038616600452602485905291602083604481808b5af1925060015f511483166118f35783831516156118e7573d5f823e3d81fd5b5f873b113d1516831692505b60405250949350505050565b5f5f83601f84011261190f575f5ffd5b50813567ffffffffffffffff811115611926575f5ffd5b60208301915083602082850101111561193d575f5ffd5b9250929050565b5f5f60208385031215611955575f5ffd5b823567ffffffffffffffff81111561196b575f5ffd5b611977858286016118ff565b90969095509350505050565b5f5f5f60408486031215611995575f5ffd5b83359250602084013567ffffffffffffffff8111156119b2575f5ffd5b6119be868287016118ff565b9497909650939450505050565b80356001600160a01b03811681146119e1575f5ffd5b919050565b5f5f5f5f606085870312156119f9575f5ffd5b611a02856119cb565b935060208501359250604085013567ffffffffffffffff811115611a24575f5ffd5b611a30878288016118ff565b95989497509550505050565b803580151581146119e1575f5ffd5b5f5f60408385031215611a5c575f5ffd5b82359150611a6c60208401611a3c565b90509250929050565b5f5f60408385031215611a86575f5ffd5b611a8f836119cb565b9150611a6c60208401611a3c565b5f5f60408385031215611aae575f5ffd5b82359150611a6c602084016119cb565b5f60208284031215611ace575f5ffd5b61049a826119cb565b5f5f60408385031215611ae8575f5ffd5b50508035926020909101359150565b5f81518084528060208401602086015e5f602082860101526020601f19601f83011685010191505092915050565b6001600160a01b03851681526080602082018190525f90611b4890830186611af7565b6040830194909452506060015292915050565b5f60208284031215611b6b575f5ffd5b5035919050565b634e487b7160e01b5f52602160045260245ffd5b6001600160a01b038981168252888116602083015287166040820152610100606082018190525f90611bba90830188611af7565b905085608083015260068510611bde57634e487b7160e01b5f52602160045260245ffd5b8460a08301528360c08301528260e08301529998505050505050505050565b5f602082016020835280845180835260408501915060408160051b8601019250602086015f5b82811015611c8a57868503603f19018452815180516001600160a01b03168652602080820151608091880182905290611c5e90880182611af7565b604083810151908901526060928301519290970191909152506020938401939190910190600101611c23565b50929695505050505050565b5f5f5f5f60608587031215611ca9575f5ffd5b8435935060208501359250604085013567ffffffffffffffff811115611a24575f5ffd5b602080825260139082015272496e76616c6964207461736b2073746174757360681b604082015260600190565b81835281816020850137505f828201602090810191909152601f909101601f19169091010190565b602081525f611d35602083018486611cfa565b949350505050565b5f60018201611d5a57634e487b7160e01b5f52601160045260245ffd5b5060010190565b6020808252600d908201526c27b7363c9032b6b83637bcb2b960991b604082015260600190565b634e487b7160e01b5f52603260045260245ffd5b600181811c90821680611db057607f821691505b602082108103611dce57634e487b7160e01b5f52602260045260245ffd5b50919050565b634e487b7160e01b5f52604160045260245ffd5b601f82111561168857805f5260205f20601f840160051c81016020851015611e0d5750805b601f840160051c820191505b81811015611e2c575f8155600101611e19565b5050505050565b815167ffffffffffffffff811115611e4d57611e4d611dd4565b611e6181611e5b8454611d9c565b84611de8565b6020601f821160018114611e93575f8315611e7c5750848201515b5f19600385901b1c1916600184901b178455611e2c565b5f84815260208120601f198516915b82811015611ec25787850151825560209485019460019092019101611ea2565b5084821015611edf57868401515f19600387901b60f8161c191681555b50505050600190811b01905550565b838152604060208201525f61066d604083018486611cfa565b60018060a01b0385168152836020820152606060408201525f611f2e606083018486611cfa565b969550505050505056fe9b779b17422d0df92223018b32b4d1fa46e071723d6817e2486d003becc55f00a264697066735822122073789f1cb6c9d2f3247a3100a92fcb2fee34a102d7b8a0d5c9cc0ed36932067c64736f6c634300081c0033","linkReferences":{}},"methodIdentifiers":{"agentReputation(address)":"54de6e32","applications(uint256,uint256)":"7a870b63","applyForTask(uint256,uint256,string)":"d04088af","arbitrator()":"6cc6cde1","assignTask(uint256,address)":"5293ee81","cancelTask(uint256)":"7eec20a8","completeTask(uint256)":"e1e29558","createTask(string)":"111002aa","createTaskWithToken(address,uint256,string)":"306e25fc","disputeTask(uint256)":"97d9c23e","getApplications(uint256)":"bc8c937d","nativeToken()":"e1758bd8","owner()":"8da5cb5b","renounceOwnership()":"715018a6","resolveDispute(uint256,bool)":"34b25ee2","setArbitrator(address)":"b0eefabe","setTokenStatus(address,bool)":"4cd73548","submitProof(uint256,string)":"2af00510","taskCount()":"b6cb58a5","tasks(uint256)":"8d977672","transferOwnership(address)":"f2fde38b","whitelistedTokens(address)":"daf9c210"},"id":31}